{
  "_format": "hh-sol-artifact-1",
  "contractName": "Vesting",
  "sourceName": "contracts/Vesting.sol",
  "abi": [
    {
      "inputs": [],
      "stateMutability": "nonpayable",
      "type": "constructor"
    },
    {
      "anonymous": false,
      "inputs": [
        {
          "indexed": false,
          "internalType": "string",
          "name": "category",
          "type": "string"
        },
        {
          "indexed": false,
          "internalType": "bytes32",
          "name": "categoryHash",
          "type": "bytes32"
        },
        {
          "indexed": false,
          "internalType": "address",
          "name": "beneficiary",
          "type": "address"
        },
        {
          "indexed": false,
          "internalType": "uint256",
          "name": "totalAmount",
          "type": "uint256"
        }
      ],
      "name": "CreateVesting",
      "type": "event"
    },
    {
      "anonymous": false,
      "inputs": [
        {
          "indexed": false,
          "internalType": "uint256",
          "name": "newDuration",
          "type": "uint256"
        }
      ],
      "name": "IncreaseMaxVestingDuration",
      "type": "event"
    },
    {
      "anonymous": false,
      "inputs": [
        {
          "indexed": false,
          "internalType": "bytes32",
          "name": "categoryHash",
          "type": "bytes32"
        },
        {
          "indexed": true,
          "internalType": "address",
          "name": "newBeneficiary",
          "type": "address"
        }
      ],
      "name": "ModifyBeneficiary",
      "type": "event"
    },
    {
      "anonymous": false,
      "inputs": [
        {
          "indexed": true,
          "internalType": "address",
          "name": "previousOwner",
          "type": "address"
        },
        {
          "indexed": true,
          "internalType": "address",
          "name": "newOwner",
          "type": "address"
        }
      ],
      "name": "OwnershipTransferred",
      "type": "event"
    },
    {
      "anonymous": false,
      "inputs": [
        {
          "indexed": false,
          "internalType": "bytes32",
          "name": "categoryHash",
          "type": "bytes32"
        },
        {
          "indexed": true,
          "internalType": "address",
          "name": "beneficiary",
          "type": "address"
        },
        {
          "indexed": false,
          "internalType": "uint256",
          "name": "releaseAmount",
          "type": "uint256"
        },
        {
          "indexed": false,
          "internalType": "uint256",
          "name": "unlockTime",
          "type": "uint256"
        }
      ],
      "name": "ReleaseVesting",
      "type": "event"
    },
    {
      "anonymous": false,
      "inputs": [
        {
          "indexed": false,
          "internalType": "bytes32",
          "name": "categoryHash",
          "type": "bytes32"
        },
        {
          "indexed": false,
          "internalType": "uint256",
          "name": "vestingRound",
          "type": "uint256"
        },
        {
          "indexed": false,
          "internalType": "uint256",
          "name": "revokeAmount",
          "type": "uint256"
        }
      ],
      "name": "RevokeVesting",
      "type": "event"
    },
    {
      "anonymous": false,
      "inputs": [
        {
          "indexed": true,
          "internalType": "address",
          "name": "from",
          "type": "address"
        },
        {
          "indexed": true,
          "internalType": "address",
          "name": "to",
          "type": "address"
        },
        {
          "indexed": false,
          "internalType": "uint256",
          "name": "value",
          "type": "uint256"
        }
      ],
      "name": "Transfer",
      "type": "event"
    },
    {
      "anonymous": false,
      "inputs": [
        {
          "indexed": false,
          "internalType": "uint256",
          "name": "newStartTime",
          "type": "uint256"
        }
      ],
      "name": "UpdateStartTime",
      "type": "event"
    },
    {
      "anonymous": false,
      "inputs": [
        {
          "indexed": true,
          "internalType": "address",
          "name": "recipient",
          "type": "address"
        },
        {
          "indexed": false,
          "internalType": "uint256",
          "name": "revokedAmount",
          "type": "uint256"
        }
      ],
      "name": "WithrawRevokedAmount",
      "type": "event"
    },
    {
      "inputs": [
        {
          "internalType": "uint256",
          "name": "",
          "type": "uint256"
        }
      ],
      "name": "categoryList",
      "outputs": [
        {
          "internalType": "bytes32",
          "name": "",
          "type": "bytes32"
        }
      ],
      "stateMutability": "view",
      "type": "function"
    },
    {
      "inputs": [],
      "name": "categoryListLength",
      "outputs": [
        {
          "internalType": "uint256",
          "name": "",
          "type": "uint256"
        }
      ],
      "stateMutability": "view",
      "type": "function"
    },
    {
      "inputs": [
        {
          "internalType": "bytes32",
          "name": "_categoryHash",
          "type": "bytes32"
        }
      ],
      "name": "categoryVestingInfo",
      "outputs": [
        {
          "components": [
            {
              "internalType": "string",
              "name": "category",
              "type": "string"
            },
            {
              "internalType": "address payable",
              "name": "beneficiary",
              "type": "address"
            },
            {
              "internalType": "bool[]",
              "name": "hasVestingAtTime",
              "type": "bool[]"
            },
            {
              "internalType": "uint256",
              "name": "totalAmount",
              "type": "uint256"
            },
            {
              "internalType": "uint256",
              "name": "releasedAmount",
              "type": "uint256"
            }
          ],
          "internalType": "struct IVesting.categoryVesting",
          "name": "",
          "type": "tuple"
        }
      ],
      "stateMutability": "view",
      "type": "function"
    },
    {
      "inputs": [
        {
          "internalType": "bytes32",
          "name": "_categoryHash",
          "type": "bytes32"
        },
        {
          "internalType": "uint256",
          "name": "_vestingRound",
          "type": "uint256"
        }
      ],
      "name": "checkReleasableUnitVesting",
      "outputs": [
        {
          "internalType": "bool",
          "name": "",
          "type": "bool"
        }
      ],
      "stateMutability": "view",
      "type": "function"
    },
    {
      "inputs": [
        {
          "internalType": "bytes32",
          "name": "_categoryHash",
          "type": "bytes32"
        },
        {
          "internalType": "uint256",
          "name": "_vestingRound",
          "type": "uint256"
        }
      ],
      "name": "checkReleasedUnitVestingByCategoryHash",
      "outputs": [
        {
          "internalType": "bool",
          "name": "",
          "type": "bool"
        }
      ],
      "stateMutability": "view",
      "type": "function"
    },
    {
      "inputs": [
        {
          "internalType": "string",
          "name": "_categoryStr",
          "type": "string"
        },
        {
          "internalType": "uint256",
          "name": "_vestingRound",
          "type": "uint256"
        }
      ],
      "name": "checkReleasedUnitVestingByCategoryStr",
      "outputs": [
        {
          "internalType": "bool",
          "name": "",
          "type": "bool"
        }
      ],
      "stateMutability": "view",
      "type": "function"
    },
    {
      "inputs": [
        {
          "internalType": "bytes32",
          "name": "_categoryHash",
          "type": "bytes32"
        },
        {
          "internalType": "uint256",
          "name": "_vestingRound",
          "type": "uint256"
        }
      ],
      "name": "checkRevokeableUnitVesting",
      "outputs": [
        {
          "internalType": "bool",
          "name": "",
          "type": "bool"
        }
      ],
      "stateMutability": "view",
      "type": "function"
    },
    {
      "inputs": [
        {
          "internalType": "bytes32",
          "name": "_categoryHash",
          "type": "bytes32"
        },
        {
          "internalType": "uint256",
          "name": "_vestingRound",
          "type": "uint256"
        }
      ],
      "name": "checkRevokedUnitVesting",
      "outputs": [
        {
          "internalType": "bool",
          "name": "",
          "type": "bool"
        }
      ],
      "stateMutability": "view",
      "type": "function"
    },
    {
      "inputs": [],
      "name": "contractBalance",
      "outputs": [
        {
          "internalType": "uint256",
          "name": "",
          "type": "uint256"
        }
      ],
      "stateMutability": "view",
      "type": "function"
    },
    {
      "inputs": [
        {
          "internalType": "string",
          "name": "_category",
          "type": "string"
        },
        {
          "internalType": "address",
          "name": "_beneficiary",
          "type": "address"
        },
        {
          "components": [
            {
              "internalType": "uint256",
              "name": "vestingAmount",
              "type": "uint256"
            },
            {
              "internalType": "uint256",
              "name": "vestingTime",
              "type": "uint256"
            }
          ],
          "internalType": "struct IVesting.unitVestingParam[]",
          "name": "_vestingList",
          "type": "tuple[]"
        }
      ],
      "name": "createVesting",
      "outputs": [
        {
          "internalType": "bytes32",
          "name": "",
          "type": "bytes32"
        }
      ],
      "stateMutability": "payable",
      "type": "function"
    },
    {
      "inputs": [
        {
          "internalType": "uint256",
          "name": "_newDuration",
          "type": "uint256"
        }
      ],
      "name": "increaseMaxVestingDuration",
      "outputs": [],
      "stateMutability": "nonpayable",
      "type": "function"
    },
    {
      "inputs": [],
      "name": "maxVestingDuration",
      "outputs": [
        {
          "internalType": "uint256",
          "name": "",
          "type": "uint256"
        }
      ],
      "stateMutability": "view",
      "type": "function"
    },
    {
      "inputs": [
        {
          "internalType": "bytes32",
          "name": "_categoryHash",
          "type": "bytes32"
        },
        {
          "internalType": "uint256",
          "name": "_vestingRound",
          "type": "uint256"
        },
        {
          "internalType": "address",
          "name": "_newBeneficiary",
          "type": "address"
        }
      ],
      "name": "modifyBeneficiary",
      "outputs": [],
      "stateMutability": "nonpayable",
      "type": "function"
    },
    {
      "inputs": [],
      "name": "owner",
      "outputs": [
        {
          "internalType": "address",
          "name": "",
          "type": "address"
        }
      ],
      "stateMutability": "view",
      "type": "function"
    },
    {
      "inputs": [
        {
          "internalType": "bytes32",
          "name": "",
          "type": "bytes32"
        }
      ],
      "name": "releaseInfoByCategory",
      "outputs": [
        {
          "internalType": "string",
          "name": "category",
          "type": "string"
        },
        {
          "internalType": "address payable",
          "name": "beneficiary",
          "type": "address"
        },
        {
          "internalType": "uint256",
          "name": "totalAmount",
          "type": "uint256"
        },
        {
          "internalType": "uint256",
          "name": "releasedAmount",
          "type": "uint256"
        }
      ],
      "stateMutability": "view",
      "type": "function"
    },
    {
      "inputs": [
        {
          "internalType": "uint256",
          "name": "",
          "type": "uint256"
        },
        {
          "internalType": "bytes32",
          "name": "",
          "type": "bytes32"
        }
      ],
      "name": "releaseInfoByTimestamp",
      "outputs": [
        {
          "internalType": "uint256",
          "name": "vestingAmount",
          "type": "uint256"
        },
        {
          "internalType": "uint256",
          "name": "vestingTime",
          "type": "uint256"
        },
        {
          "internalType": "bool",
          "name": "released",
          "type": "bool"
        },
        {
          "internalType": "bool",
          "name": "revoked",
          "type": "bool"
        }
      ],
      "stateMutability": "view",
      "type": "function"
    },
    {
      "inputs": [
        {
          "internalType": "uint256",
          "name": "_vestingRound",
          "type": "uint256"
        }
      ],
      "name": "releaseRoundVesting",
      "outputs": [],
      "stateMutability": "nonpayable",
      "type": "function"
    },
    {
      "inputs": [
        {
          "internalType": "bytes32",
          "name": "_categoryHash",
          "type": "bytes32"
        },
        {
          "internalType": "uint256",
          "name": "_vestingRound",
          "type": "uint256"
        }
      ],
      "name": "releaseUnitVesting",
      "outputs": [],
      "stateMutability": "nonpayable",
      "type": "function"
    },
    {
      "inputs": [],
      "name": "renounceOwnership",
      "outputs": [],
      "stateMutability": "nonpayable",
      "type": "function"
    },
    {
      "inputs": [
        {
          "internalType": "bytes32",
          "name": "_categoryHash",
          "type": "bytes32"
        }
      ],
      "name": "revokeCategory",
      "outputs": [],
      "stateMutability": "nonpayable",
      "type": "function"
    },
    {
      "inputs": [
        {
          "internalType": "bytes32",
          "name": "_categoryHash",
          "type": "bytes32"
        },
        {
          "internalType": "uint256",
          "name": "_vestingRound",
          "type": "uint256"
        }
      ],
      "name": "revokeUnitVesting",
      "outputs": [],
      "stateMutability": "nonpayable",
      "type": "function"
    },
    {
      "inputs": [],
      "name": "revokedAmount",
      "outputs": [
        {
          "internalType": "uint256",
          "name": "",
          "type": "uint256"
        }
      ],
      "stateMutability": "view",
      "type": "function"
    },
    {
      "inputs": [],
      "name": "startTime",
      "outputs": [
        {
          "internalType": "uint256",
          "name": "",
          "type": "uint256"
        }
      ],
      "stateMutability": "view",
      "type": "function"
    },
    {
      "inputs": [],
      "name": "totalReleasedAmount",
      "outputs": [
        {
          "internalType": "uint256",
          "name": "",
          "type": "uint256"
        }
      ],
      "stateMutability": "view",
      "type": "function"
    },
    {
      "inputs": [],
      "name": "totalVestingAmount",
      "outputs": [
        {
          "internalType": "uint256",
          "name": "",
          "type": "uint256"
        }
      ],
      "stateMutability": "view",
      "type": "function"
    },
    {
      "inputs": [
        {
          "internalType": "address",
          "name": "newOwner",
          "type": "address"
        }
      ],
      "name": "transferOwnership",
      "outputs": [],
      "stateMutability": "nonpayable",
      "type": "function"
    },
    {
      "inputs": [
        {
          "internalType": "bytes32",
          "name": "_categoryHash",
          "type": "bytes32"
        },
        {
          "internalType": "uint256",
          "name": "_vestingRound",
          "type": "uint256"
        }
      ],
      "name": "unitVestingInfo",
      "outputs": [
        {
          "components": [
            {
              "internalType": "uint256",
              "name": "vestingAmount",
              "type": "uint256"
            },
            {
              "internalType": "uint256",
              "name": "vestingTime",
              "type": "uint256"
            },
            {
              "internalType": "bool",
              "name": "released",
              "type": "bool"
            },
            {
              "internalType": "bool",
              "name": "revoked",
              "type": "bool"
            }
          ],
          "internalType": "struct IVesting.unitVesting",
          "name": "",
          "type": "tuple"
        }
      ],
      "stateMutability": "view",
      "type": "function"
    },
    {
      "inputs": [
        {
          "internalType": "bytes32",
          "name": "_categoryHash",
          "type": "bytes32"
        }
      ],
      "name": "unitVestingListInfo",
      "outputs": [
        {
          "components": [
            {
              "internalType": "uint256",
              "name": "vestingAmount",
              "type": "uint256"
            },
            {
              "internalType": "uint256",
              "name": "vestingTime",
              "type": "uint256"
            },
            {
              "internalType": "bool",
              "name": "released",
              "type": "bool"
            },
            {
              "internalType": "bool",
              "name": "revoked",
              "type": "bool"
            }
          ],
          "internalType": "struct IVesting.unitVesting[]",
          "name": "",
          "type": "tuple[]"
        }
      ],
      "stateMutability": "view",
      "type": "function"
    },
    {
      "inputs": [
        {
          "internalType": "uint256",
          "name": "_newTime",
          "type": "uint256"
        }
      ],
      "name": "updateStartTime",
      "outputs": [],
      "stateMutability": "nonpayable",
      "type": "function"
    },
    {
      "inputs": [
        {
          "internalType": "address",
          "name": "user",
          "type": "address"
        }
      ],
      "name": "userBalance",
      "outputs": [
        {
          "internalType": "uint256",
          "name": "",
          "type": "uint256"
        }
      ],
      "stateMutability": "view",
      "type": "function"
    },
    {
      "inputs": [
        {
          "internalType": "address payable",
          "name": "_recipient",
          "type": "address"
        }
      ],
      "name": "withdrawRevokedAmount",
      "outputs": [],
      "stateMutability": "nonpayable",
      "type": "function"
    },
    {
      "stateMutability": "payable",
      "type": "receive"
    }
  ],
  "bytecode": "0x6080604052603d6005553480156200001657600080fd5b50600160005562000027336200003f565b62000036426212750062000091565b600255620000b9565b600180546001600160a01b038381166001600160a01b0319831681179093556040519116919082907f8be0079c531659141344cd1fd0a4f28419497f9722a3daafe3b4186f6b6457e090600090a35050565b80820180821115620000b357634e487b7160e01b600052601160045260246000fd5b92915050565b61254680620000c96000396000f3fe6080604052600436106101dc5760003560e01c806378e9792511610102578063ac01820411610095578063d1b43ae711610064578063d1b43ae714610670578063d3ece2a514610690578063d4b3db39146106b0578063f2fde38b146106dd57600080fd5b8063ac018204146105fb578063c21260a51461061b578063c48a45131461063b578063cb4783801461065b57600080fd5b80638b7afe2e116100d15780638b7afe2e146105045780638da5cb5b146105175780639a907b7f1461053f578063a7bfa708146105db57600080fd5b806378e97925146104855780637c25f4011461049b57806380c33932146104d857806383273cd1146104ee57600080fd5b80633ca36cb01161017a5780636328131c116101495780636328131c1461040d578063637f9ee1146104205780636aa359fa14610450578063715018a61461047057600080fd5b80633ca36cb014610325578063530f257e1461034557806356080ef31461036557806361fb55821461039257600080fd5b80630a008416116101b65780630a008416146102a95780630dde11bf146102d95780632db94d19146102f957806337aeb0861461030f57600080fd5b80630103c92b1461022c57806306bcf02f1461026757806308aee3171461028957600080fd5b366102275760405162461bcd60e51b8152602060048201526016602482015275111a5c9958dd081c9a59dbc8191a5cd85b1b1bddd95960521b60448201526064015b60405180910390fd5b600080fd5b34801561023857600080fd5b50610254610247366004611d8c565b6001600160a01b03163190565b6040519081526020015b60405180910390f35b34801561027357600080fd5b50610287610282366004611da9565b6106fd565b005b34801561029557600080fd5b506102876102a4366004611d8c565b6107b8565b3480156102b557600080fd5b506102c96102c4366004611dc2565b61088d565b604051901515815260200161025e565b3480156102e557600080fd5b506102c96102f4366004611dc2565b6108b9565b34801561030557600080fd5b5061025460035481565b34801561031b57600080fd5b5061025460065481565b34801561033157600080fd5b50610287610340366004611dc2565b610918565b34801561035157600080fd5b50610287610360366004611da9565b61098e565b34801561037157600080fd5b50610385610380366004611da9565b6109d7565b60405161025e9190611de4565b34801561039e57600080fd5b506103e56103ad366004611dc2565b600860209081526000928352604080842090915290825290208054600182015460029092015490919060ff8082169161010090041684565b604080519485526020850193909352901515918301919091521515606082015260800161025e565b61025461041b366004611ea0565b610bf5565b34801561042c57600080fd5b5061044061043b366004611da9565b61113b565b60405161025e9493929190611f98565b34801561045c57600080fd5b5061028761046b366004611da9565b6111f7565b34801561047c57600080fd5b506102876112b6565b34801561049157600080fd5b5061025460025481565b3480156104a757600080fd5b506102c96104b6366004611dc2565b6000908152600860209081526040808320938352929052206002015460ff1690565b3480156104e457600080fd5b5061025460055481565b3480156104fa57600080fd5b5061025460045481565b34801561051057600080fd5b5047610254565b34801561052357600080fd5b506001546040516001600160a01b03909116815260200161025e565b34801561054b57600080fd5b506105ce61055a366004611dc2565b60408051608080820183526000808352602080840182905283850182905260609384018290529481526008855283812095815294845293829020825194850183528054855260018101549385019390935260029092015460ff80821615159285019290925261010090041615159082015290565b60405161025e9190611fd0565b3480156105e757600080fd5b506102c96105f6366004611dc2565b6112ca565b34801561060757600080fd5b50610287610616366004611da9565b61136b565b34801561062757600080fd5b50610254610636366004611da9565b6113f9565b34801561064757600080fd5b506102c9610656366004611fff565b61141a565b34801561066757600080fd5b50600754610254565b34801561067c57600080fd5b5061028761068b36600461204b565b611453565b34801561069c57600080fd5b506102876106ab366004611dc2565b611589565b3480156106bc57600080fd5b506106d06106cb366004611da9565b6116f1565b60405161025e9190612084565b3480156106e957600080fd5b506102876106f8366004611d8c565b611879565b6107056118ef565b600254421061077c5760405162461bcd60e51b815260206004820152603d60248201527f41667465722074686520737461727454696d6520686173207061737365642c2060448201527f6d6f64696669636174696f6e7320617265206e6f7420616c6c6f776564000000606482015260840161021e565b60028190556040518181527fa09018266c541576eb124551c9c57c82a8129add3ba6777a5974b1d0e6252e99906020015b60405180910390a150565b6107c0611949565b6107c86118ef565b60006006541161081a5760405162461bcd60e51b815260206004820152601c60248201527f5468657265206973206e6f20616d6f756e7420746f207265766f6b6500000000604482015260640161021e565b610826816006546119a2565b6001600160a01b0381167f1f78e7223c2be86fbe4cbd5445506e0ea35501817f1ac6f6df98cb011eefca5061085d6012600a612214565b60065461086a9190612220565b60405190815260200160405180910390a2600060065561088a6001600055565b50565b6000818152600860209081526040808320858452909152902060020154610100900460ff165b92915050565b6000818152600860209081526040808320858452909152812054151580156108fe5750600082815260086020908152604080832086845290915290206002015460ff16155b8015610911575061090f838361088d565b155b9392505050565b610920611949565b61092a82826112ca565b6109765760405162461bcd60e51b815260206004820181905260248201527f546869732076657374696e672063616e6e6f742062652072656c65617365642e604482015260640161021e565b6109808282611a93565b61098a6001600055565b5050565b6109966118ef565b60005b6005548160ff16101561098a576109b3828260ff166108b9565b156109c5576109c5828260ff16611589565b806109cf81612237565b915050610999565b6060600060055467ffffffffffffffff8111156109f6576109f6612256565b604051908082528060200260200182016040528015610a4857816020015b604080516080810182526000808252602080830182905292820181905260608201528252600019909201910181610a145790505b5090506000805b6005548161ffff161015610b1a5761ffff8116600090815260086020908152604080832088845290915290205415610b085781610a8b8161226c565b61ffff831660009081526008602090815260408083208a84528252918290208251608081018452815481526001820154928101929092526002015460ff80821615159383019390935261010090049091161515606082015285519194509150849084908110610afc57610afc612285565b60200260200101819052505b80610b128161229b565b915050610a4f565b5060008167ffffffffffffffff811115610b3657610b36612256565b604051908082528060200260200182016040528015610b8857816020015b604080516080810182526000808252602080830182905292820181905260608201528252600019909201910181610b545790505b50905060005b828161ffff161015610bec57838161ffff1681518110610bb057610bb0612285565b6020026020010151828261ffff1681518110610bce57610bce612285565b60200260200101819052508080610be49061229b565b915050610b8e565b50949350505050565b6000610bff611949565b610c076118ef565b610c1084611bff565b610c5c5760405162461bcd60e51b815260206004820152601b60248201527f496e76616c69642062656e656669636961727920616464726573730000000000604482015260640161021e565b81610cb55760405162461bcd60e51b815260206004820152602360248201527f416e20456d707479206172726179206973206e6f7420612076616c696420696e6044820152621c1d5d60ea1b606482015260840161021e565b6000610cc18787611c38565b6000818152600960205260409020600101549091506001600160a01b031615610d2c5760405162461bcd60e51b815260206004820152601e60248201527f416c72656164792065786973742076657374696e672063617465676f72790000604482015260640161021e565b6007805460018101825560009182527fa66cc928b5edb82af9bd49922954155ab7b0942694bea4ce44661d9a8736c68801829055600554819067ffffffffffffffff811115610d7d57610d7d612256565b604051908082528060200260200182016040528015610da6578160200160208202803683370190505b50905060005b85811015610f7a576000878783818110610dc857610dc8612285565b9050604002016000013590506000888884818110610de857610de8612285565b90506040020160200135905060008211610e4e5760405162461bcd60e51b815260206004820152602160248201527f416d6f756e7420706172616d65746572206d75737420626520706f73697469766044820152606560f81b606482015260840161021e565b6005548110610ec55760405162461bcd60e51b815260206004820152603b60248201527f506c65617365207265636f6e66696775726520746865206d617856657374696e60448201527f674475726174696f6e20616e642063616c6c20697420616761696e0000000000606482015260840161021e565b604080516080810182528381526020808201848152600083850181815260608501828152878352600885528683208d84529094529490209251835551600180840191909155925160029092018054915161ffff1990921692151561ff00191692909217610100911515919091021790558451859083908110610f4957610f49612285565b91151560209283029190910190910152610f6382866122bc565b945050508080610f729061226c565b915050610dac565b506040518060a001604052808a8a8080601f01602080910402602001604051908101604052809392919081815260200183838082843760009201829052509385525050506001600160a01b038a166020808401919091526040808401869052606084018790526080909301829052868252600990522081518190610ffe9082612358565b506020828101516001830180546001600160a01b0319166001600160a01b039092169190911790556040830151805161103d9260028501920190611cbd565b506060820151816003015560808201518160040155905050816003600082825461106791906122bc565b9091555034905061107a6012600a612214565b6110849084612220565b146110eb5760405162461bcd60e51b815260206004820152603160248201527f4d69736d61746368206265747765656e2070726f7669646564205269676f20616044820152701b99081d995cdd1a5b99c8185b5bdd5b9d607a1b606482015260840161021e565b7f62376f09bf5d40de3dd8684d2014cda43ccb31b9eca55c5101b0590c58b2d58e8989858a86604051611122959493929190612418565b60405180910390a1505060016000559695505050505050565b600960205260009081526040902080548190611156906122cf565b80601f0160208091040260200160405190810160405280929190818152602001828054611182906122cf565b80156111cf5780601f106111a4576101008083540402835291602001916111cf565b820191906000526020600020905b8154815290600101906020018083116111b257829003601f168201915b505050506001830154600384015460049094015492936001600160a01b039091169290915084565b6111ff6118ef565b60055461120d8260016122bc565b116112785760405162461bcd60e51b815260206004820152603560248201527f546865206e65772076616c7565206d7573742062652067726561746572207468604482015274616e20746865206578697374696e672076616c756560581b606482015260840161021e565b6112838160016122bc565b6005556040518181527fc9ee6b068bd29f8d74b35b9e5d52d2e1134c26e50d641099c435d56a20cdb7a3906020016107ad565b6112be6118ef565b6112c86000611c6b565b565b60008181526008602090815260408083208584529091528120541515801561130f5750600082815260086020908152604080832086845290915290206002015460ff16155b80156113225750611320838361088d565b155b80156109115750600254600083815260086020908152604080832087845290915290206001015442919061135890603c90612220565b61136291906122bc565b11159392505050565b611373611949565b60005b60075460ff821610156113ee576113ad60078260ff168154811061139c5761139c612285565b9060005260206000200154836112ca565b156113dc576113dc60078260ff16815481106113cb576113cb612285565b906000526020600020015483611a93565b806113e681612237565b915050611376565b5061088a6001600055565b6007818154811061140957600080fd5b600091825260209091200154905081565b600061144b6114298585611c38565b6000848152600860209081526040808320938352929052206002015460ff1690565b949350505050565b61145b6118ef565b60008281526008602090815260408083208684529091529020546114915760405162461bcd60e51b815260040161021e90612466565b600082815260086020908152604080832086845290915290206002015460ff166114cd5760405162461bcd60e51b815260040161021e906124aa565b6114d681611bff565b6115225760405162461bcd60e51b815260206004820152601b60248201527f496e76616c69642062656e656669636961727920616464726573730000000000604482015260640161021e565b60008381526009602090815260409182902060010180546001600160a01b0319166001600160a01b03851690811790915591518581527fc8a0ac7c0bba2e04c2f5ca7430504c675f034fb2960c2e9eaeae1c4b4d149c2291015b60405180910390a2505050565b6115916118ef565b60008181526008602090815260408083208584529091529020546115c75760405162461bcd60e51b815260040161021e90612466565b600081815260086020908152604080832085845290915290206002015460ff166116035760405162461bcd60e51b815260040161021e906124aa565b61160d828261088d565b156116685760405162461bcd60e51b815260206004820152602560248201527f5468652076657374696e672068617320616c7265616479206265656e2072657660448201526437b5b2b21760d91b606482015260840161021e565b6000818152600860209081526040808320858452909152812060028101805461ff0019166101001790555460068054919283926116a69084906122bc565b909155505060408051848152602081018490529081018290527fff64aac6053927a669044eca2d0a26bd591e6cd41f9e3ca274b8172d0193ce059060600160405180910390a1505050565b61172c6040518060a001604052806060815260200160006001600160a01b031681526020016060815260200160008152602001600081525090565b60008281526009602052604090819020815160a08101909252805482908290611754906122cf565b80601f0160208091040260200160405190810160405280929190818152602001828054611780906122cf565b80156117cd5780601f106117a2576101008083540402835291602001916117cd565b820191906000526020600020905b8154815290600101906020018083116117b057829003601f168201915b505050918352505060018201546001600160a01b0316602080830191909152600283018054604080518285028101850182528281529401939283018282801561185557602002820191906000526020600020906000905b825461010083900a900460ff1615158152602060019283018181049485019490930390920291018084116118245790505b50505050508152602001600382015481526020016004820154815250509050919050565b6118816118ef565b6001600160a01b0381166118e65760405162461bcd60e51b815260206004820152602660248201527f4f776e61626c653a206e6577206f776e657220697320746865207a65726f206160448201526564647265737360d01b606482015260840161021e565b61088a81611c6b565b6001546001600160a01b031633146112c85760405162461bcd60e51b815260206004820181905260248201527f4f776e61626c653a2063616c6c6572206973206e6f7420746865206f776e6572604482015260640161021e565b60026000540361199b5760405162461bcd60e51b815260206004820152601f60248201527f5265656e7472616e637947756172643a207265656e7472616e742063616c6c00604482015260640161021e565b6002600055565b6001600160a01b0382166119b557600080fd5b6000826001600160a01b03168260405160006040518083038185875af1925050503d8060008114611a02576040519150601f19603f3d011682016040523d82523d6000602084013e611a07565b606091505b5050905080611a4e5760405162461bcd60e51b81526020600482015260136024820152724661696c656420746f2073656e64205269676f60681b604482015260640161021e565b6040518281526001600160a01b0384169030907fddf252ad1be2c89b69c2b068fc378daa952ba7f163c4a11628f55a4df523b3ef9060200160405180910390a3505050565b600081815260086020908152604080832085845290915290205447811115611b095760405162461bcd60e51b8152602060048201526024808201527f54686520636f6e74726163742062616c616e636520697320696e7375666669636044820152631a595b9d60e21b606482015260840161021e565b600083815260096020526040902060010154611b43906001600160a01b0316611b346012600a612214565b611b3e9084612220565b6119a2565b8060046000828254611b5591906122bc565b909155505060008381526009602052604081206004018054839290611b7b9084906122bc565b909155505060008281526008602090815260408083208684528252808320600201805460ff19166001908117909155600983529281902090920154825186815291820184905242928201929092526001600160a01b03909116907f1a80da065ae09d7fc2c40d100bddfbe2d73238f78df70ba7e6a54baa67b07da49060600161157c565b60006001600160a01b03821615801590611c2257506001600160a01b0382163014155b80156108b35750506001600160a01b03163b1590565b60008282604051602001611c4d929190612500565b60405160208183030381529060405280519060200120905092915050565b600180546001600160a01b038381166001600160a01b0319831681179093556040519116919082907f8be0079c531659141344cd1fd0a4f28419497f9722a3daafe3b4186f6b6457e090600090a35050565b82805482825590600052602060002090601f01602090048101928215611d525791602002820160005b83821115611d2357835183826101000a81548160ff0219169083151502179055509260200192600101602081600001049283019260010302611ce6565b8015611d505782816101000a81549060ff0219169055600101602081600001049283019260010302611d23565b505b50611d5e929150611d62565b5090565b5b80821115611d5e5760008155600101611d63565b6001600160a01b038116811461088a57600080fd5b600060208284031215611d9e57600080fd5b813561091181611d77565b600060208284031215611dbb57600080fd5b5035919050565b60008060408385031215611dd557600080fd5b50508035926020909101359150565b6020808252825182820181905260009190848201906040850190845b81811015611e4b57611e3883855180518252602081015160208301526040810151151560408301526060810151151560608301525050565b9284019260809290920191600101611e00565b50909695505050505050565b60008083601f840112611e6957600080fd5b50813567ffffffffffffffff811115611e8157600080fd5b602083019150836020828501011115611e9957600080fd5b9250929050565b600080600080600060608688031215611eb857600080fd5b853567ffffffffffffffff80821115611ed057600080fd5b611edc89838a01611e57565b909750955060208801359150611ef182611d77565b90935060408701359080821115611f0757600080fd5b818801915088601f830112611f1b57600080fd5b813581811115611f2a57600080fd5b8960208260061b8501011115611f3f57600080fd5b9699959850939650602001949392505050565b6000815180845260005b81811015611f7857602081850181015186830182015201611f5c565b506000602082860101526020601f19601f83011685010191505092915050565b608081526000611fab6080830187611f52565b6001600160a01b03959095166020830152506040810192909252606090910152919050565b8151815260208083015190820152604080830151151590820152606080830151151590820152608081016108b3565b60008060006040848603121561201457600080fd5b833567ffffffffffffffff81111561202b57600080fd5b61203786828701611e57565b909790965060209590950135949350505050565b60008060006060848603121561206057600080fd5b8335925060208401359150604084013561207981611d77565b809150509250925092565b60006020808352835160a0828501526120a060c0850182611f52565b858301516001600160a01b0316604086810191909152860151858203601f19016060870152805180835290840192506000918401905b808310156120f8578351151582529284019260019290920191908401906120d6565b5060608701516080870152608087015160a08701528094505050505092915050565b634e487b7160e01b600052601160045260246000fd5b600181815b8085111561216b5781600019048211156121515761215161211a565b8085161561215e57918102915b93841c9390800290612135565b509250929050565b600082612182575060016108b3565b8161218f575060006108b3565b81600181146121a557600281146121af576121cb565b60019150506108b3565b60ff8411156121c0576121c061211a565b50506001821b6108b3565b5060208310610133831016604e8410600b84101617156121ee575081810a6108b3565b6121f88383612130565b806000190482111561220c5761220c61211a565b029392505050565b60006109118383612173565b80820281158282048414176108b3576108b361211a565b600060ff821660ff810361224d5761224d61211a565b60010192915050565b634e487b7160e01b600052604160045260246000fd5b60006001820161227e5761227e61211a565b5060010190565b634e487b7160e01b600052603260045260246000fd5b600061ffff8083168181036122b2576122b261211a565b6001019392505050565b808201808211156108b3576108b361211a565b600181811c908216806122e357607f821691505b60208210810361230357634e487b7160e01b600052602260045260246000fd5b50919050565b601f82111561235357600081815260208120601f850160051c810160208610156123305750805b601f850160051c820191505b8181101561234f5782815560010161233c565b5050505b505050565b815167ffffffffffffffff81111561237257612372612256565b6123868161238084546122cf565b84612309565b602080601f8311600181146123bb57600084156123a35750858301515b600019600386901b1c1916600185901b17855561234f565b600085815260208120601f198616915b828110156123ea578886015182559484019460019091019084016123cb565b50858210156124085787850151600019600388901b60f8161c191681555b5050505050600190811b01905550565b60808152846080820152848660a0830137600060a086830181019190915260208201949094526001600160a01b039290921660408301526060820152601f909201601f191690910101919050565b60208082526024908201527f546865207370656369666965642076657374696e6720646f6573206e6f7420656040820152631e1a5cdd60e21b606082015260800190565b60208082526036908201527f43616e6e6f74206d6f6469667920612076657374696e6720746861742068617360408201527508185b1c9958591e481899595b881c995b19585cd95960521b606082015260800190565b818382376000910190815291905056fea2646970667358221220f17b0e752dc5fbaef9de7c7a43eb11b3471f28927533a9008f75a412dfdab28364736f6c63430008150033",
  "linkReferences": {},
  "deployedLinkReferences": {}
}