{
  "contractName": "PoC5",
  "abi": [
    {
      "inputs": [],
      "stateMutability": "payable",
      "type": "constructor"
    },
    {
      "inputs": [
        {
          "internalType": "address payable",
          "name": "_to",
          "type": "address"
        }
      ],
      "name": "transferAsset",
      "outputs": [],
      "stateMutability": "payable",
      "type": "function"
    },
    {
      "inputs": [],
      "name": "callRevert",
      "outputs": [],
      "stateMutability": "nonpayable",
      "type": "function"
    }
  ],
  "bytecode": "0x608060405261025e806100136000396000f3fe6080604052600436106100295760003560e01c8063c7d7b6601461002e578063ed3292991461004a575b600080fd5b6100486004803603810190610043919061017e565b610061565b005b34801561005657600080fd5b5061005f6100de565b005b60008173ffffffffffffffffffffffffffffffffffffffff166108fc349081150290604051600060405180830381858888f193505050509050806100da576040517f08c379a00000000000000000000000000000000000000000000000000000000081526004016100d190610208565b60405180910390fd5b5050565b60008073ffffffffffffffffffffffffffffffffffffffff163073ffffffffffffffffffffffffffffffffffffffff161461011857600080fd5b50565b600080fd5b600073ffffffffffffffffffffffffffffffffffffffff82169050919050565b600061014b82610120565b9050919050565b61015b81610140565b811461016657600080fd5b50565b60008135905061017881610152565b92915050565b6000602082840312156101945761019361011b565b5b60006101a284828501610169565b91505092915050565b600082825260208201905092915050565b7f4661696c656420746f2073656e64206569746865720000000000000000000000600082015250565b60006101f26015836101ab565b91506101fd826101bc565b602082019050919050565b60006020820190508181036000830152610221816101e5565b905091905056fea2646970667358221220632798852f035d5a43e7fd94ed47f0cb576d10e21ddec7c8547afddbb7d65ad564736f6c63430008100033",
  "immutableReferences": {},
  "source": "contract PoC5 {\n    constructor () payable {}\n\n    function transferAsset(address payable _to) public payable {\n        bool sent = _to.send(msg.value); // return true or false\n        require(sent,\"Failed to send either\");\n    }\n\n    function callRevert() public {\n        address someone = 0x0000000000000000000000000000000000000000;\n        require(address(this) == someone);\n    }\n}\n",
  "sourcePath": "/Users/kylekwon/projects/rigochain/contracts/contracts/poc5.sol",
  "compiler": {
    "name": "solc",
    "version": "0.8.16+commit.07a7930e.Emscripten.clang"
  },
  "schemaVersion": "3.4.9",
  "updatedAt": "2023-06-13T14:34:22.354Z",
  "devdoc": {
    "kind": "dev",
    "methods": {},
    "version": 1
  },
  "userdoc": {
    "kind": "user",
    "methods": {},
    "version": 1
  }
}